:020000040800F2
:1000000000000220810A0008A5020008A7020008DB
:10001000A9020008AB020008AD02000800000000C1
:10002000000000000000000000000000AF02000817
:10003000B102000800000000B3020008B502000889
:10004000D10A0008D10A0008D10A0008D10A000824
:10005000D10A0008D10A0008D10A0008D10A000814
:10006000D10A0008D10A0008D10A0008D10A000804
:10007000D10A0008D10A0008D10A0008D10A0008F4
:10008000D10A0008D10A0008D10A000800000000C7
:10009000000000000000000000000000D10A00087D
:1000A000D10A0008D10A0008D10A0008D10A0008C4
:1000B000D10A0008D10A0008D10A0008D10A0008B4
:1000C000D10A0008D10A0008D10A0008D10A0008A4
:1000D000D10A0008D10A0008D10A00080000000077
:1000E000D10A0008D10A0008D10A00080000000067
:1000F000000000000000000000000000D10A00081D
:1001000000000000D10A0008D10A0008D10A000846
:1001100000000000000000000000000000000000DF
:10012000D10A0008D10A0008D10A0008D10A000843
:10013000D10A0008000000000000000000000000DC
:10014000000000000000000000000000D10A0008CC
:10015000D10A0008D10A0008D10A0008D10A000813
:10016000D10A0008D10A00080000000000000000C9
:10017000000000000000000000000000000000007F
:1001800000000000D10A000800000000000000008C
:08019000D10A0008D10A0008A1
:1001980053B94AB9002908BF00281CBF4FF0FF31E6
:1001A8004FF0FF3000F00CB8ADF1080C6DE904CE4B
:1001B80000F0B8FCDDF804E0DDE9022304B0704784
:1001C800704700BF10B5054C237833B9044B13B101
:1001D8000448AFF300800123237010BD0C000020F9
:1001E80000000000E80D000808B5034B1BB10349E7
:1001F8000348AFF3008008BD000000001000002095
:10020800E80D000872B6FEE710B594B008AC3022CD
:100218000021204600F059FC002303930493059322
:10022800069307930193184A116C41F080511164A9
:10023800126C02F080520192019A0293134A1168DB
:1002480041F440411160126802F440420292029A5D
:100258000222089201220B9210220C920E93204641
:1002680000F044F860B90F2303930021049105912D
:100278000691079103A800F089FA18B914B010BDC7
:10028800FFF7C0FFFFF7BEFF0038024000700040D4
:1002980008B500F0BBFBFFF7B7FFFEE7FEE7FEE798
:1002A800FEE7FEE7FEE770477047704708B500F0C5
:1002B800C7FB08BD82B0002100910B4B5A6C42F479
:1002C80080425A645A6C02F480420092009A01916A
:1002D8001A6C42F080521A641B6C03F0805301932D
:1002E800019B02B0704700BF00380240002800F0B0
:1002F800E08170B582B00446036813F0010F3BD06B
:100308009F4B9B6803F00C03042B2CD09C4B9B68E1
:1003180003F00C03082B21D06368B3F5803F4FD05E
:10032800B3F5A02F52D0964B1A6822F480321A6087
:100338001A6822F480221A606368002B50D000F0FB
:100348008BFB05468E4B1B6813F4003F14D100F05D
:1003580083FB401B6428F5D90320B1E1884B5B6817
:1003680013F4800FD8D0864B1B6813F4003F03D0DA
:100378006368002B00F09F81236813F0020F54D0AC
:100388007F4B9B6813F00C0F3ED07D4B9B6803F0AE
:100398000C03082B33D0E368002B68D0794B01227B
:1003A8001A6000F059FB0546754B1B6813F0020FE5
:1003B80054D100F051FB401B0228F5D903207FE1FE
:1003C8006F4A136843F480331360B5E76C4B1A68BF
:1003D80042F480221A601A6842F480321A60ABE74D
:1003E80000F03AFB0546664B1B6813F4003FC3D088
:1003F80000F032FB401B6428F5D9032060E1604B14
:100408005B6813F4800FC6D15D4B1B6813F0020FB5
:1004180003D0E368012B40F05081594A136823F058
:10042800F803216943EAC1031360236813F0080F36
:1004380042D063696BB3534B0122C3F8802E00F09E
:100448000BFB05464E4B5B6F13F0020F34D100F0E7
:1004580003FB401B0228F5D9032031E1484A136801
:1004680023F0F803216943EAC1031360DDE7454B34
:1004780000221A6000F0F0FA0546414B1B6813F0A1
:10048800020FD2D000F0E8FA401B0228F5D9032069
:1004980016E13C4B0022C3F8802E00F0DDFA054639
:1004A800374B5B6F13F0020F06D000F0D5FA401BF4
:1004B8000228F5D9032003E1236813F0040F77D04D
:1004C8002F4B1B6C13F0805F33D1002301932C4B0F
:1004D8001A6C42F080521A641B6C03F0805301932B
:1004E800019B0125284B1B6813F4807F23D0A36848
:1004F800012B34D0052B38D0214B1A6F22F0010282
:100508001A671A6F22F004021A67A368002B3DD0FD
:1005180000F0A2FA06461A4B1B6F13F0020F46D1E1
:1005280000F09AFA801B41F288339842F3D90320ED
:10053800C6E00025D6E7144A136843F480731360B5
:1005480000F08AFA0646104B1B6813F4807FCED160
:1005580000F082FA801B0228F5D90320B0E0084A8F
:10056800136F43F001031367CFE7054B1A6F42F08F
:1005780004021A671A6F42F001021A67C5E700BF42
:1005880000380240000047420070004000F064FA62
:100598000646524B1B6F13F0020F08D000F05CFAAE
:1005A800801B41F288339842F3D9032088E0EDB9E3
:1005B800A369002B00F08380484A926802F00C027D
:1005C800082A51D0022B17D0454B00221A6600F09A
:1005D80043FA0446414B1B6813F0007F42D000F0F9
:1005E8003BFA001B0228F5D9032069E03B4A136C4B
:1005F80023F080531364DBE7394B00221A6600F0BE
:100608002BFA0546354B1B6813F0007F06D000F027
:1006180023FA401B0228F5D9032051E0E369226A36
:100628001343626A43EA8213A26A5208013A43EA10
:100638000243E26A43EA0263284A5360284B0122D4
:100648001A6600F009FA0446244B1B6813F0007F71
:1006580006D100F001FA001B0228F5D903202FE08B
:1006680000202DE000202BE0012B2BD01B4B5B68DA
:1006780003F48001E269914226D103F03F02216A26
:100688008A4223D1616A47F6C0721A40B2EB811FD1
:100698001ED103F44031A26A5208013AB1EB024F6D
:1006A80018D103F07063E26AB3EB026F14D1002033
:1006B80006E001207047012002E0012000E0002050
:1006C80002B070BD0120FBE70120F9E70120F7E740
:1006D8000120F5E70120F3E70120F1E700380240A7
:1006E8000000474208B5264B9B6803F00C03042B17
:1006F80041D0082B41D1224B5A6802F03F025B6877
:1007080013F4800F12D01E4B5968C1F388111D488D
:100718000023A1FB0001FFF73BFD194B5B68C3F306
:10072800014301335B00B0FBF3F008BD144B58687C
:10073800C0F388104FEA401CBCEB000C6EEB0E0EA9
:100748004FEA8E1343EA9C634FEA8C11B1EB0C011C
:1007580063EB0E03DB0043EA5173C90011EB000C95
:1007680043F10003990200234FEA8C2041EA9C518F
:10077800FFF70EFDD1E70348D7E70348D5E700BFE9
:100788000038024040787D010024F400002800F081
:100798009B8070B50D4604464F4B1B6803F007035A
:1007A8008B4208D2CBB24C4A1370136803F007038C
:1007B8008B4240F08B80236813F0020F17D013F0A0
:1007C800040F04D0454A936843F4E05393602368C8
:1007D80013F0080F04D0414A936843F460439360D0
:1007E8003E4A936823F0F003A1680B4393602368A3
:1007F80013F0010F32D06368012B21D09A1E012A11
:1008080025D9364A126812F0020F61D033498A6836
:1008180022F0030213438B6000F01EF906462F4BAB
:100828009B6803F00C036268B3EB820F16D000F0EC
:1008380013F9801B41F288339842F0D9032042E033
:10084800264A126812F4003FE0D101203BE0234A17
:10085800126812F0007FD9D1012034E01E4B1B68CA
:1008680003F00703AB4207D9EAB21B4B1A701B68A7
:1008780003F00703AB422DD1236813F0040F06D011
:10088800164A936823F4E053E1680B4393602368A6
:1008980013F0080F07D0114A936823F460432169C5
:1008A80043EAC1039360FFF71DFF0C4B9B68C3F33A
:1008B80003130B4AD35CD8400A4B18600A4B1868DC
:1008C80000F07EF8002070BD012070470120FAE793
:1008D8000120F8E70120F6E7003C0240003802401A
:1008E800000E00080800002004000020002808DB93
:1008F8000901C9B200F1604000F5614080F80013B9
:10090800704700F00F000901C9B2014B1954704734
:1009180014ED00E000B500F00700C0F1070CBCF1D1
:10092800040F28BF4FF0040C031D062B0FD9C31E5C
:100938004FF0FF3E0EFA0CF021EA000199400EFA42
:1009480003FE22EA0E0241EA02005DF804FB0023DE
:10095800EEE70000074AD36823F4E0631B041B0C8E
:10096800000200F4E060034343F0BF6343F4003344
:10097800D360704700ED00E010B50446054BD86819
:10098800C0F30220FFF7C6FF01462046FFF7AEFF7F
:1009980010BD00BF00ED00E00138B0F1807F0BD240
:1009A8004FF0E0235861054AF02182F82310002017
:1009B800986107221A6170470120704700ED00E036
:1009C80010B504460E4B1A784FF47A73B3FBF2F362
:1009D8000C4A1068B0FBF3F0FFF7DEFF68B90F2C84
:1009E80001D901200AE0002221464FF0FF30FFF72D
:1009F800C3FF054B1C60002000E0012010BD00BFB4
:100A080000000020080000200400002008B50B4B5F
:100A18001A6842F400721A601A6842F480621A6016
:100A28001A6842F480721A600320FFF793FF0F20C0
:100A3800FFF7C6FFFFF73EFC002008BD003C024060
:100A4800034A1168034B1B780B441360704700BFBF
:100A58002800002000000020014B1868704700BFE4
:100A680028000020034AD2F8883043F47003C2F803
:100A78008830704700ED00E0DFF834D0FFF7F2FF70
:100A88000C480D490D4A002302E0D458C4500433E1
:100A9800C4188C42F9D30A4A0A4C002301E01360B7
:100AA8000432A242FBD300F019F8FFF7F1FB7047BC
:100AB80000000220000000200C000020200E00088A
:100AC8000C0000202C000020FEE70244034693425D
:100AD80000D1704703F8011BF9E7000070B50D4B12
:100AE8000D4D5B1B9C100026A64209D100F078F939
:100AF8000A4D0B4B5B1B9C100026A64205D170BD0E
:100B080055F8043B98470136EEE755F8043B9847FB
:100B18000136F2E7180E0008180E0008180E000833
:100B28001C0E00082DE9F0478C468E46089E154697
:100B380004461946002B40F0D080724547D9B2FAD6
:100B480082F74FB1C7F120030EFA07FC20FA03F32E
:100B5800BD4043EA0C0CBC404FEA154EA8B2BCFBA2
:100B6800FEF8230C0EFB18CC08FB00F943EA0C43F3
:100B7800994528D9EB1808F1FF3204D2994502D9D2
:100B8800A8F102022B44A3EB0903A4B2B3FBFEFCB9
:100B98000EFB1C330CFB00F044EA0344A04214D9BA
:100BA8002C190CF1FF3304D2A04202D9ACF1020394
:100BB8002C44241A43EA02401EB1FC40002334604E
:100BC8007360BDE8F0874246DDE76346F1E7002A37
:100BD80079D0B2FA82F3002B3FD01946C1F1200335
:100BE80002FA01F52EFA03F20EFA01FE20FA03F3D7
:100BF80043EA0E034FEA154E00FA01F4B2FBFEFC7D
:100C0800AFB20EFB1C201A0C0CFB07F842EA00429C
:100C180090455AD9AA180CF1FF3004D2904502D950
:100C2800ACF102002A44A2EB08029BB2B2FBFEFC24
:100C38000EFB1C220CFB07F743EA02439F4246D9EE
:100C4800EB180CF1FF3204D29F4202D9ACF1020238
:100C58002B44DB1B42EA004202E0AEEB0203012216
:100C68004FEA154EAFB2B3FBFEFC200C0EFB1C3353
:100C78000CFB07F840EA034398452AD9EB180CF116
:100C8800FF3004D2984502D9ACF102002B44A3EB03
:100C98000803A4B2B3FBFEFC0EFB1C330CFB07F7E6
:100CA80044EA0344A74216D92C190CF1FF3304D2A5
:100CB800A74202D9ACF102032C44E41B43EA0040EA
:100CC8000F46114678E71F2188E76046ABE7624682
:100CD800BFE76046DBE76346EFE7734506D916B919
:100CE800002108466DE7C6E9000EF9E7B3FA83F775
:100CF80087B9734501D3824207D8841A6EEB030380
:100D080001209C461EB900215BE73846FAE7C6E990
:100D1800004CF8E7C7F1200CBB4022FA0CF51D4344
:100D280020FA0CF12EFA0CF30EFA07FE41EA0E0136
:100D38004FEA154900FA07F4B3FBF9F81FFA85FEE4
:100D480009FB18300B0C08FB0EFA43EA00439A45DE
:100D580002FA07F240D9EB1808F1FF3004D29A459D
:100D680002D9A8F102002B44A3EB0A0389B2B3FB12
:100D7800F9F809FB183308FB0EFE41EA03418E45DA
:100D88002CD9691808F1FF3304D28E4502D9A8F18D
:100D98000203294443EA0040A0FB0298A1EB0E019C
:100DA8004145CE46434602D306D14C4504D2B9EB61
:100DB800020E68EB05030138002EA4D0B4EB0E0236
:100DC80061EB030101FA0CFC22FA07F34CEA030376
:100DD800F940C6E9003196E74046C5E74346D9E7FA
:100DE800F8B500BFF8BC08BC9E467047F8B500BF10
:080DF800F8BC08BC9E467047E0
:100E000000000000000000000102030406070809BA
:080E10001CFDFF7F0100000042
:040E1800F1010008DC
:040E1C00CD010008FC
:0C0E200001000000100000000024F4009D
:0400000508000A8164
:00000001FF
